:0400000055EF3DF08B
:107A6C00000E9EBA010E12009EAAFED7AE50120056
:107A7C00016EACA2FED701C0ADFF1200016EC79023
:107A8C0001C0C9FFC7A0FED7C95012008B94270EA6
:107A9C0044EC3DF0100E44EC3DF08B84120000EEF3
:107AAC001FF00D0EEE6AE806FDE1000164EF3EF0FA
:107ABC008B94E10E44EC3DF08B848B94E20E44EC01
:107ACC003DF08B8412009D96C69A94889496949A55
:107ADC00C79EC78CC698C696C694C682C690C68AE0
:107AEC001200000E026E000E036E8B94FF0E44EC1F
:107AFC003DF0026E8B840250100B036E03380F0B9B
:107B0C00036E03501200030E026E980EE82EFED781
:107B1C00022EFCD78B94610E44EC3DF0000E44EC2D
:107B2C003DF0036E8B848B94E20E44EC3DF08B8421
:107B3C0003501200036E8B94270E44EC3DF0600E44
:107B4C0044EC3DF08B848B94200E44EC3DF01A0EEB
:107B5C0044EC3DF08B840D0E026EFC0EE82EFED72D
:107B6C00022EFCD78B94E10E44EC3DF08B848B946D
:107B7C00A00E44EC3DF0035044EC3DF08B84898620
:107B8C00030E026E980EE82EFED7022EFCD78996B5
:107B9C001200000E806E000E816E000E826E000EC2
:107BAC00F06E000EF16E000EF26E000E9E6E000E68
:107BBC00D06E000E926E000E936E000E946EF098C6
:107BCC00F09A000E0F015D6F000E0F015C6F3C0E02
:107BDC00936EF19E3C0E0F015B6F000E2B6E000E30
:107BEC002A6E000E296E000E286E000E276E1200F3
:107BFC00000E0A6E08AE0AD0081E071E061E056C83
:107C0C00000E062207220822010E0A6E04AE0AD0CC
:107C1C00041E031E021E016C000E0222032204220B
:107C2C00010E0A1A000E0B6E000E0C6E000E0D6E7D
:107C3C00000E0E6E0550061007100810D8B42AD08E
:107C4C00010E096E06D0D890053606360736083672
:107C5C00092A08AEF8D7D8900B360C360D360E36EE
:107C6C000550015C06500258075003580850045840
:107C7C00D8A009D00550015E0650025A0750035A8D
:107C8C000850045A0B80D89008320732063205325D
:107C9C00092EE1D70A50D8B408D00E1E0D1E0C1EAA
:107CAC000B6C000E0C220D220E220BC001F00CC02E
:107CBC0002F00DC003F00EC004F012000B0E1E6E8D
:107CCC00260E1D6E5E0EE82EFED71D2EFCD71E2E28
:107CDC00FAD7CFEC3DF0800E0F6E250E106E000E15
:107CEC00116E000E126E6AEC3FF069EC3DF00D0E59
:107CFC001D6EFC0EE82EFED71D2EFCD7E2EC3EF0DE
:107D0C00340E1D6EF20EE82EFED71D2EFCD789B058
:107D1C0003D01D6A1D2A01D01D6A89501D18FE0B47
:107D2C001D18896E1A0E1D6EF80EE82EFED71D2E2C
:107D3C00FCD700D077EC3DF0E806D8A40DD05EEC73
:107D4C003DF04CEC3DF05EEC3DF00D0E1D6EFC0E6E
:107D5C00E82EFED71D2EFCD7ABA209D0AB98030E94
:107D6C001D6E980EE82EFED71D2EFCD7AB8836EC78
:107D7C003DF0E806D8A4CBD73AEC3DF0286E89B29A
:107D8C0003D01D6A1D2A01D01D6A1D4689501D187D
:107D9C00FD0B1D18896E2850A0EC3DF00D0E1D6ECC
:107DAC00FC0EE82EFED71D2EFCD789EC3DF0296E7B
:107DBC0029503EEC3DF0ABD78996020E036E040EB3
:107DCC00026EBA0EE82EFED7022EFCD7032EFAD77F
:107DDC0000D08B840D0E026EFC0EE82EFED7022E08
:107DEC00FCD78B94200E44EC3DF0180E44EC3DF087
:107DFC008B848B94210E44EC3DF0010E44EC3DF051
:107E0C008B848B94230E44EC3DF0030E44EC3DF03C
:107E1C008B848B94240E44EC3DF03F0E44EC3DF0EF
:107E2C008B848B94250E44EC3DF06E0E44EC3DF0AF
:107E3C008B848B94260E44EC3DF0070E44EC3DF005
:107E4C008B848B94500E44EC3DF0730E44EC3DF05F
:107E5C008B848B943D0E44EC3DF0060E44EC3DF0CF
:107E6C008B848B943C0E44EC3DF0010E44EC3DF0C5
:107E7C008B848B94300E44EC3DF0000E046E040E9B
:107E8C00046401D005D0E70E44EC3DF0042AF7D78A
:107E9C008B848B942A0E44EC3DF0000E046E040E81
:107EAC00046401D005D0E70E44EC3DF0042AF7D76A
:107EBC008B848B94E20E44EC3DF08B848B94E10E1E
:107ECC0044EC3DF08B8412000FC013F010C014F082
:107EDC0011C015F012C016F0060ED89013361436D9
:107EEC0015361636E82EF9D7131E141E151E161E3F
:107EFC00132A000E142215221622000E1324016ED2
:107F0C00120E1420026E7A0E1520036E000E16202F
:107F1C00046E0FC017F010C018F011C019F012C089
:107F2C001AF0060ED8901736183619361A36E82E6F
:107F3C00F9D717C005F018C006F019C007F01AC021
:107F4C0008F0FEEC3DF001C01BF002C01CF01C045C
:107F5C00D8A044D00FC013F010C014F011C015F00D
:107F6C0012C016F0040ED890133614361536163689
:107F7C00E82EF9D7131E141E151E161E132A000EFA
:107F8C00142215221622000E1324016E120E142038
:107F9C00026E7A0E1520036E000E1620046E0FC0B2
:107FAC0017F010C018F011C019F012C01AF0040E1E
:107FBC00D8901736183619361A36E82EF9D717C056
:107FCC0005F018C006F019C007F01AC008F0FEEC56
:107FDC003DF001C01BF002C01CF0AC841C04D8B0F6
:107FEC0012001BC0AFFFAC98AB8E948E949CAB88E8
:047FFC00AC8A120039
:020000040020DA
:08000000FFFFFFFFFFFFFFFF00
:020000040030CA
:0E0000001D037F7FFF8991FF0FC00FE00F40AF
:00000001FF
