:04000000B7EF00F066
:100008005682FACF2FF0FBCF30F0E9CF31F0EACFAC
:1000180032F0E1CF33F0E2CF34F0D9CF35F0DACF98
:1000280036F0F3CF37F0F4CF38F0F6CF39F0F7CF1A
:100038003AF0F8CF3BF0F5CF3CF0F2A074D0F2964E
:1000480063D081B8CD8081B86ED0CD90480E106E47
:100058006B0E116E420E126ECF502C6E2B6ACE5064
:100068002D6E2E6A2B502D10096E2C502E100A6EF4
:100078000DEC03F009C00DF00AC00EF00BC00FF034
:10008800C5EC01F00DC01CF00EC01DF00FC01EF035
:100098004BEC01F01CC04FF01DC050F0000E4C6E30
:1000A800010E30D081BACD8081BA3DD0CD90480EB6
:1000B800106E6B0E116E420E126ECF502C6E2B6AA4
:1000C800CE502D6E2E6A2B502D10096E2C502E10EE
:1000D8000A6E0DEC03F009C00DF00AC00EF00BC05B
:1000E8000FF0C5EC01F00DC01CF00EC01DF00FC0E4
:1000F8001EF04BEC01F01CC04DF01DC04EF0000E80
:100108004C6E000E4B6E0FD04BC02BF04CC02CF039
:100118002C50000AD8A407D02B50000AD8B491D785
:10012800010AD8B4BFD7F290F2863CC0F5FF3BC0B5
:10013800F8FF3AC0F7FF39C0F6FF38C0F4FF37C000
:10014800F3FF36C0DAFF35C0D9FF34C0E2FF33C051
:10015800E1FF32C0EAFF31C0E9FF30C0FBFF2FC02A
:10016800FAFF5692110029EF03F08FEC02F0F0EC41
:1001780002F01A0E00016B6FF80EE82EFED76B2FF7
:10018800FCD700F0000ECF6E000ECE6E89B004D002
:1001980000016B6B6B2B02D000016B6B8950000167
:1001A8006B19FE0B6B19896E000ECF6E000ECE6EAA
:1001B8004B504C10D8A40AD0100E0F015A6F8A80E9
:1001C800060EE82EFED700D08A900DD04B044C10B6
:1001D800D8A409D0200E0F015A6F8A82060EE82E85
:1001E800FED700D08A92820E00016B6FDD0EE82EDA
:1001F800FED76B2FFCD700D0505004E1030E4F5CA4
:10020800D8A041D04E5004E1030E4D5CD8A03BD09D
:1002180051504F5C52505058D8A006D051504D5CA8
:1002280052504E58D8B00ED047044810D8A403D026
:10023800620E556E21D0000E4A6E000E496E474A76
:10024800482A21D053504F5C54505058D8A006D05B
:1002580053504D5C54504E58D8B013D0020E491824
:100268004A10D8A407D0420E556E000E4A6E000EF2
:10027800496E09D0494A4A2A000E486E000E476E58
:1002880002D0570E556E5550CAEC02F07FD71EC0EB
:1002980020F0216A226A1D34203601E32180205093
:1002A8002A6E2A50D8A409D0000E1C6E000E1D6EAE
:1002B800000E1E6E000E1F6E1200170E206E1CC060
:1002C80021F01DC022F01EC023F02028246E04D087
:1002D800D890233222322132242EFAD72150256E8B
:1002E8001D8EFF0E1C16FF0E1D16000E1E161C502E
:1002F800266E1D50276E1E50286E296A8E0E2A5EA5
:100308002AAE16D02A50800A8F0FD8B009D0000E16
:100318001C6E000E1D6E000E1E6E000E1F6E12006B
:10032800D89029322832273226322A3EF9D715D0DA
:10033800170E2A640FD0000E1C6E000E1D6E000EE4
:100348001E6E000E1F6E1200D890263627362836ED
:1003580029362A062A50D8A4F7D72550D8B408D069
:10036800291E281E271E266C000E27222822292235
:1003780026C01CF027C01DF028C01EF029C01FF0A1
:1003880012000FC013F0146A156A0E34133601E315
:10039800148013501A6E1A50D8A407D0000E0D6E90
:1003A800000E0E6E000E0F6E120012C013F0146ACB
:1003B800156A1134133601E3148013501B6E1B5059
:1003C800D8A407D0000E0D6E000E0E6E000E0F6E34
:1003D8001200000E176E000E186E000E196E1B50DC
:1003E800890F1A5E0FC01BF012501B1A800E1B16C5
:1003F8000E8EFF0E0D16FF0E0E16000E0F16118E26
:10040800FF0E1016FF0E1116000E1216180E166E9D
:10041800D89017361836193610500D5C11500E58F2
:1004280012500F58D8A007D010500D5E11500E5A18
:1004380012500F5A1780D8900D360E360F36162EDA
:10044800E7D717C001F018C002F019C003F01AC0AE
:1004580004F01BC005F038EC02F001C00DF002C03A
:100468000EF003C00FF012000450D8B405D00150AC
:1004780002100310D8A40CD0000E016E000E026EFC
:10048800000E036E1200042AD890033202320132A1
:10049800000E0114066E000E0214076EFE0E031401
:1004A800086E065007100810D8B40CD0ECD7042AF0
:1004B800010E0126000E0222000E0322D8900332FC
:1004C80002320132000E0114066E000E0214076E8D
:1004D800FF0E0314086E065007100810D8B406D093
:1004E800E6D70406D89001360236033602BE03D09A
:1004F800020E0460F6D704A0029ED890043204507D
:1005080003120550D8A4038E01C001F002C002F006
:1005180003C003F01200000E806E000E816E000E04
:10052800826E000EF06E000EF16E000EF26E000E7E
:100538009E6E000ED06E000E926E000E936E000E30
:10054800946E380E936EF290F286F180300E0F01A1
:100558005A6F0F015C93100ECD6E000E4C6E000E9C
:100568004B6E000E546E640E536E000E526E4B0EA0
:10057800516E000E4A6E000E496E000E486E000E57
:10058800476E570E556EF28ED08E120000016A6FBC
:10059800010E0F01256F0F01259D0F012297000EF7
:1005A8000F01216FA00E0F01226F0F0120810F0193
:1005B80020836AC026FF0F01208703D00F0120B9CE
:1005C80089820F0120B7FAD70F0120B989820F015C
:1005D80020B9120089921200800E6F6E6E8E6E9C8A
:1005E8006E9A000E726E010E0E01436FBA0E0E0166
:1005F800446F070E0E01456F708A000E6F6E6E9E77
:100608006E9C6E9A6E38E832070B0009D8B4120057
:10061800F9D7000E0C6E0AAE06D0096C0A1ED8B0C7
:100628000A2A010E0C6E09C001F00AC002F0036A22
:100638008E0E046E0CC005F038EC02F001C009F013
:1006480002C00AF003C00BF0120000EE60F00A0EC0
:10065800EE6AE806FDE100EE3DF0140EEE6AE806EB
:10066800FDE156905692000EF86E0001B9EF00F0C9
:020000040020DA
:08000000FFFFFFFFFFFFFFFF00
:020000040030CA
:0E0000001D037F7FFF8991FF0FC00FE00F40AF
:00000001FF
