:0400000068EF00F0B5
:100008004F82FACF03F0FBCF04F0E9CF05F0EACF37
:1000180006F0E1CF07F0E2CF08F0D9CF09F0DACF48
:100028000AF0F3CF0BF0F4CF0CF0F6CF0DF0F7CFCA
:100038000EF0F8CF0FF0F5CF10F09EAC1000F29E46
:100048009D9CC450016EC35000018E6F01C08FF09B
:100058000001885100018911D8A40AD08EC08AF005
:100068008FC08BF0C284000E0001896F010E09D089
:100078008EC08CF08FC08DF0C294000E0001896F85
:10008800000E886F9E9C9D8CF28E100010C0F5FFAC
:100098000FC0F8FF0EC0F7FF0DC0F6FF0CC0F4FF4D
:1000A8000BC0F3FF0AC0DAFF09C0D9FF08C0E2FF9E
:1000B80007C0E1FF06C0EAFF05C0E9FF04C0FBFF77
:1000C80003C0FAFF4F92110051EF08F0CCEC04F096
:1000D800600E1F6E090E206E000E216E000E226E3D
:1000E800AEEC03F0A7EC08F0AEEC05F0530EDFEC35
:1000F80007F098EC08F03DC039F03EC03AF042EC09
:1001080007F01A0E0001A56FF80EE82EFED7A52FEE
:10011800FCD700F016EC03F0340E0001A56FF10EC9
:10012800E82EFED7A52FFCD700D09E9C9D8CC0EC56
:1001380008F0F28CF28E888489B604D00001A56B91
:10014800A52B02D00001A56B0001A547A547A5472F
:1001580089500001A519F70BA519896EC2A2C282A0
:1001680077EC08F0E806D8A40FD0C9EC08F0B5EC95
:1001780008F016EC03F0030E0001A56F970EE82EA9
:10018800FED7A52FFCD700D066EC06F04A6E0CEC23
:1001980006F0496E18D0000E0001956F000E04D0CD
:1001A800000E0001956F010E946F000E446E010E53
:1001B800436E29D0000E0001956F000E946F000E5B
:1001C800446E000EF5D74A50420AD8B4E4D7150A4F
:1001D800D8B4F0D7350AD8B4E3D7ECD7000E406EC0
:1001E800000E03D0000E406E010E3F6E000E426EF0
:1001F800010E416E13D0000E406E000E3F6E000ED1
:10020800426E000EF6D74950410AD8B4E7D7190A0A
:10021800D8B4F1D7390AD8B4E5D7EDD7CA0E00015A
:100228008A5D080E00018B59D8B013D0CA0E0001A0
:100238008C5D080E00018D59D8A082A20AD083B81F
:1002480084A007D081A005D0000E3C6E000E3B6E46
:1002580016D0020E0001901900019111D8A40CD0FB
:10026800530E486E000E3C6E010E3B6E000E0001F0
:10027800916F000E906F03D00001904B912B83B0CB
:10028800A7D0000E0001876F000E866F89841A0EB2
:100298000001A56FF80EE82EFED7A52FFCD700F0B9
:1002A800899441504210D8A40ED043504410D8A489
:1002B8000AD03B503C10D8A406D0410E89EC08F077
:1002C80039EC08F083D041504210D8A40ED04350E6
:1002D8004410D8A40AD03B043C10D8A406D0420E3F
:1002E80089EC08F039EC08F071D041504210D8A4DC
:1002F8000ED043044410D8A40AD03B503C10D8A4D4
:1003080006D0430E89EC08F039EC08F05FD0415074
:100318004210D8A40ED043044410D8A40AD03B04F9
:100328003C10D8A406D0440E89EC08F039EC08F04B
:100338004DD041044210D8A40ED043504410D8A444
:100348000AD03B503C10D8A406D0450E89EC08F0E2
:1003580039EC08F03BD041044210D8A40ED04350E9
:100368004410D8A40AD03B043C10D8A406D0460EAA
:1003780089EC08F039EC08F029D041044210D8A4DF
:100388000ED043044410D8A40AD03B503C10D8A443
:1003980006D0470E89EC08F039EC08F017D0410474
:1003A8004210D8A40ED043044410D8A40AD03B0469
:1003B8003C10D8A406D0480E89EC08F039EC08F0B7
:1003C80005D0650E89EC08F039EC08F0486E03D0CA
:1003D8000001864B872B000187BF03D1000187519D
:1003E80005E1150E0001865DD8A0FBD0530E486EBE
:1003F800000E3C6E010E3B6EF4D03F504010D8A466
:1004080011D03DC09CF03EC09DF0550E00019E6F7E
:10041800BAEC06F09CC03DF09DC03EF0550E476E0C
:10042800899AF6D0550E4718D8A405D0550E10EC69
:1004380008F0530E476E530EDFEC07F0000E3E6EC9
:10044800000E3D6E3DC039F03EC03AF042EC07F078
:1004580098D00001945100019511D8A435D03DC021
:100468009CF03EC09DF0440E00019E6FBAEC06F071
:100478009CC03DF09DC03EF0440E476E000193BF06
:1004880008D00001935109E10F0E0001925DD8B028
:1004980004D00001924B932BBBD089BA04D0000141
:1004A800A56BA52B02D00001A56B0001A53BA547B4
:1004B80089500001A519DF0BA519896E000E0001EE
:1004C800936F000E926FA4D0440E4718D8A405D09D
:1004D800440E10EC08F0530E476E530EDFEC07F095
:1004E800000E3E6E000E3D6E3DC039F03EC03AF043
:1004F80042EC07F046D03DC09CF03EC09DF04C0E4B
:1005080000019E6FADEC07F09CC03DF09DC03EF031
:100518007FD03DC09CF03EC09DF0520E00019E6F02
:100528007BEC07F09CC03DF09DC03EF071D03F5081
:100538004010D8A410D03DC09CF03EC09DF0550E90
:1005480000019E6FBAEC06F09CC03DF09DC03EF0E5
:10055800680E476E16D0680E4718D8A405D0550EF9
:1005680010EC08F0530E476E530EDFEC07F0000E48
:100578003E6E000E3D6E3DC039F03EC03AF042EC92
:1005880007F0898A45D0550E4718D8B408D0680EA8
:100598004718D8B404D0440E4718D8A402D0530E34
:1005A800476E899A530E476E530EDFEC07F0000E24
:1005B8003E6E000E3D6E3DC039F03EC03AF042EC52
:1005C80007F026D0899A530EDFEC07F0000E3E6E36
:1005D800000E3D6E3DC039F03EC03AF042EC07F0E7
:1005E80017D04850440AD8B434D70C0AD8B4C9D75D
:1005F800040AD8B480D71E0AD8B48BD7010AD8B455
:10060800C2D7060AD8B4F9D63D0AD8B490D7DAD7F3
:10061800340E0001A56FF10EE82EFED7A52FFCD7EA
:1006280000D08AD58C94020E136E040E126EBA0E88
:10063800E82EFED7122EFCD7132EFAD700D08C86C0
:100648000D0E126EFC0EE82EFED7122EFCD78C96DD
:10065800200ED2EC08F0190ED2EC08F08C868C969D
:10066800210ED2EC08F0010ED2EC08F08C868C96A4
:10067800230ED2EC08F0030ED2EC08F08C868C9690
:10068800240ED2EC08F03F0ED2EC08F08C868C9643
:10069800260ED2EC08F0070ED2EC08F08C868C9669
:1006A800500ED2EC08F0730ED2EC08F08C868C96C3
:1006B8003D0ED2EC08F0060ED2EC08F08C868C9633
:1006C8003C0ED2EC08F0010ED2EC08F08C868C9629
:1006D800250ED2EC08F06E0ED2EC08F08C868C96C3
:1006E800300ED2EC08F0000E146E040E146401D023
:1006F80005D0E70ED2EC08F0142AF7D78C868C9632
:100708002A0ED2EC08F0000E146E040E146401D008
:1007180005D0E70ED2EC08F0142AF7D78C868C9611
:10072800E20ED2EC08F08C868C96E10ED2EC08F042
:100738008C868C96200ED2EC08F01B0ED2EC08F0BA
:100748008C860D0E126EFC0EE82EFED7122EFCD7EC
:100758008C8412001FC023F020C024F021C025F093
:1007680022C026F0060ED8902336243625362636A3
:10077800E82EF9D7231E241E251E261E232A000E26
:10078800242225222622000E2324116E120E242054
:10079800126E7A0E2520136E000E2620146E1FC0CE
:1007A80027F020C028F021C029F022C02AF0060E28
:1007B800D8902736283629362A36E82EF9D727C082
:1007C80015F028C016F029C017F02AC018F048EC18
:1007D80005F011C02BF012C02CF02C04D8A044D086
:1007E8001FC023F020C024F021C025F022C026F02D
:1007F800040ED8902336243625362636E82EF9D727
:10080800231E241E251E261E232A000E24222522EE
:100818002622000E2324116E120E2420126E7A0E48
:100828002520136E000E2620146E1FC027F020C04E
:1008380028F021C029F022C02AF0040ED8902736CB
:10084800283629362A36E82EF9D727C015F028C0C9
:1008580016F029C017F02AC018F048EC05F011C0AE
:100868002BF012C02CF0BA842C04D8B012002BC084
:100878007BFFBA98A68E958E959CA688BA8A120098
:10088800000E326E000E316E000E386E000E376E9E
:10089800000E346E010E336E20EE60F010EE1DF087
:1008A800130EDBCFE3FFE806FCE238D01ABE27D0F0
:1008B8001A5003E11904D8A022D0010E19141B6E96
:1008C800000E1A141C6ED8903734D96E3834DA6E8C
:1008D8001D0ED926000EDA221BC0DEFF1CC0DDFF6C
:1008E80019C011F01AC012F0000E146E020E136E29
:1008F80000EC07F011C019F012C01AF00DD0D89012
:100908003734D96E3834DA6E1D0ED926000EDA2245
:10091800000EDE6E000EDD6E374A382A38BEC6D7A6
:10092800385004E10A0E375CD8A0C0D7000E366EE6
:10093800000E356E36BE06D0365025E10A0E355CFF
:10094800D8B021D0D8903534D96E3634DA6E1D0E31
:10095800D926000EDA22DECF11F0DDCF12F033C037
:1009680013F034C014F064EC08F011503126125022
:100978003222D89033363436354A362A36BEE2D754
:10098800365001E1DBD731C019F032C01AF012003D
:10099800000E806E000E816E000E826E000E836E59
:1009A800000E846E000EF26E000EF16E000EF06EF8
:1009B800000E9E6E000ED06E000E926E000E936EAC
:1009C800000E946E000E956E000E966EF098F09ADA
:1009D800030E0F015D6F000E0F015C6F000EA86E15
:1009E800030E926E090E936E110E956E020E946EA2
:1009F80096809692010E4E6E000E4B6E000E446E5F
:100A0800000E436E000E426E000E416E000E4A6EDE
:100A1800000E496E000E486E000E476E000E3E6EC8
:100A2800000E3D6E000E00018F6F000E8E6F000EDF
:100A380000018D6F000E8C6F000E00018B6F000E91
:100A48008A6F000E3C6E000E3B6E000E406E000E6C
:100A58003F6E000E0001956F000E946F000E0001AE
:100A6800936F000E926F000E0001896F000E886F61
:100A7800000E0001876F000E866F000E0001916F57
:100A8800000E906F899A1200000E1A6E18AE0AD0E6
:100A9800181E171E161E156C000E16221722182275
:100AA800010E1A6E14AE0AD0141E131E121E116CFB
:100AB800000E122213221422010E1A1A000E1B6EA7
:100AC800000E1C6E000E1D6E000E1E6E15501610C8
:100AD80017101810D8B42AD0010E196E06D0D89065
:100AE8001536163617361836192A18AEF8D7D8908C
:100AF8001B361C361D361E361550115C1650125802
:100B08001750135818501458D8A009D01550115E12
:100B18001650125A1750135A1850145A1B80D8904E
:100B28001832173216321532192EE1D71A50D8B4A6
:100B380008D01E1E1D1E1C1E1B6C000E1C221D2212
:100B48001E221BC011F01CC012F01DC013F01EC0E5
:100B580014F01200800E6F6E6E38E832070B040A2C
:100B6800D8A4FAD7000E726E010E0E01436FBA0EAA
:100B78000E01446F070E0E01456F708A000E0E01BC
:100B8800FA6F000E0E01FB6F0E01F869E00E0E0100
:100B9800F96F000E0E01FE6F000E0E01FF6F0E01C1
:100BA800FC69E00E0E01FD6F000E0E01E26F000EF3
:100BB8000E01E36F000E0E01E06FA00E0E01E16F53
:100BC800000E0E01EA6F000E0E01EB6F000E0E0113
:100BD800E86F400E0E01E96F6090609C608A0F011B
:100BE80030950F0130830F0130910F01309D0F01B7
:100BF800308B000E6F6E6E38E832070B0009D8B4E0
:100C0800FAD76E38E832070B0009D8B41200F9D7C2
:100C180071BE719E71BC719C0F0130AF50D045C040
:100C2800D9FF46C0DAFFDE6ADE6ADE6ADD6A20EED8
:100C380004F04550D9264650DA2236CFDFFF20EEA1
:100C480007F04550D9264650DA220F0135AD02D0BB
:100C5800010E01D0000EDF6E20EE06F04550D926B9
:100C68004650DA2235CFDFFF20EE05F04550D92671
:100C78004650DA220F0132A702D0010E01D0000E31
:100C8800DF6E0F0132B719D032CF11F0126A136A32
:100C9800146A030ED8901136123613361436E82E1D
:100CA800F9D745C0D9FF46C0DAFF11C0DEFF12C030
:100CB800DEFF13C0DEFF14C0DEFF0F01309F0F01FF
:100CC8003651120071BE719E71BC719C60AE4CD0E1
:100CD80045C0D9FF46C0DAFFDE6ADE6ADE6ADD6A31
:100CE80020EE04F04550D9264650DA2266CFDFFFC1
:100CF80020EE07F04550D9264650DA2265AC02D0DE
:100D0800010E01D0000EDF6E20EE06F04550D92608
:100D18004650DA2265CFDFFF20EE05F04550D92690
:100D28004650DA2262A602D0010E01D0000EDF6E14
:100D380062B619D062CF11F0126A136A146A030EF0
:100D4800D8901136123613361436E82EF9D745C026
:100D5800D9FF46C0DAFF11C0DEFF12C0DEFF13C0A4
:100D6800DEFF14C0DEFF609E6650120000019E5137
:100D7800DFEC07F0550E00019E19D8B405D0440EDB
:100D880000019E19D8A405D0000E0001A46F0F0E13
:100D9800A36F00019C510001A35D0001A451800ACA
:100DA80000019F6F00019D51800A00019F59D8A042
:100DB8001ED09CC039F09DC03AF042EC07F0050EF9
:100DC80000019C250001A16F000E00019D2100017A
:100DD800A26F020E0001A06F040E00019F6FBA0EF1
:100DE800E82EFED79F2FFCD7A02FFAD700F0A1C07E
:100DF8009CF0A2C09DF01200000E166E14AE06D034
:100E0800136C141ED8B0142A010E166E12AE06D03A
:100E1800116C121ED8B0122A010E161A000E186E86
:100E2800000E176E13501410D8B41CD0010E156E96
:100E380004D0D89013361436152A14AEFAD7D890A1
:100E4800173618361350115C14501258D8A005D014
:100E58001350115E1450125A1780D890143213325E
:100E6800152EEDD71650D8B404D0176C181ED8B06C
:100E7800182A17C011F018C012F0120039C011F06A
:100E88003AC012F0000E146E0A0E136E64EC08F0ED
:100E980011C098F012C099F098C019F099C01AF0D2
:100EA80044EC04F019C09AF01AC09BF09AC096F06E
:100EB8009BC097F00001973597339633000197351B
:100EC80097339633000196510F014B6F9AC096F0F5
:100ED8009BC097F0000197359733963300019735FB
:100EE80097339633000196510F014E6F120000019F
:100EF8009E51DFEC07F000019DBF08D000019D5115
:100F080023E1290E00019C5DD8B01ED09CC039F0A9
:100F18009DC03AF042EC07F0050E00019C25000147
:100F2800A16F000E00019D210001A26F020E0001B9
:100F3800A06F040E00019F6FBA0EE82EFED79F2FF8
:100F4800FCD7A02FFAD700F0A1C09CF0A2C09DF05A
:100F5800120000019E51DFEC07F000019DBF08D090
:100F680000019D5123E1290E00019C5DD8B01ED0DF
:100F78009CC039F09DC03AF042EC07F0050E000124
:100F88009C250001A16F000E00019D210001A26FA8
:100F9800020E0001A06F040E00019F6FBA0EE82E2A
:100FA800FED79F2FFCD7A02FFAD700F0A1C09CF046
:100FB800A2C09DF01200116E1ED08B808D828C9A7B
:100FC8008A9212008B908D928C8A8A8212008B9062
:100FD8008D828C8A8A9212008B808D928C9A8A825A
:100FE80012008B908D928C9A8A9212008B908D921F
:100FF8008C9A8A9212001150440AD8B4E3D7080A8E
:10100800D8B4E5D71E0AD8B4E7D7010AD8B4E9D7C7
:10101800060AD8B4D2D7EAD70001A06F550E00014E
:10102800A019D8A402D0440E06D0440E0001A0197D
:10103800D8A403D0550E00019F6F00019F51DFEC2B
:1010480007F0000E00019E6F0A0E9D6F9DC039F0DB
:101058009EC03AF042EC07F04E0E00019C6FEB0E7A
:10106800E82EFED79C2FFCD712008C96610ED2EC8E
:1010780008F0000ED2EC08F0126E8C868C96E20E08
:10108800D2EC08F08C868C96270ED2EC08F0600E15
:10109800D2EC08F08C861250120000EE60F0360E8A
:1010A800EE6AE806FDE100EE3BF0130EEE6AE80694
:1010B800FDE14F904F92000EF86E00016AEF00F0CC
:1010C80011501302F3CF15F0F4CF16F0115014029B
:1010D800F350162612501302F350162615C011F0BD
:1010E80016C012F01200000E126E000E136E8C96CF
:1010F800FF0ED2EC08F0126E8C861250100B136E95
:1011080013380F0B136E13501200126E8C96E10EEB
:10111800D2EC08F08C868C96A80ED2EC08F012500F
:10112800D2EC08F08C861200F90EA96E030E886EB8
:10113800998699840C0E0F014A6F0C0E0F014D6FA2
:10114800000E876E12009D96C69A94889496949A7B
:10115800C79EC78CC698C696C694C682C690C68ACD
:1011680012008C96E10ED2EC08F08C868C96E20E7A
:10117800D2EC08F08C861200000EC26E000EC16E12
:10118800C08E0F015D81C28012008C96270ED2ECB2
:1011980008F0100ED2EC08F08C861200116EC79081
:0C11A80011C0C9FFC7A0FED7C95012003B
:020000040020DA
:08000000FFFFFFFFFFFFFFFF00
:020000040030CA
:0E00000015037F7FFF8991FF0FC00FE00F40B7
:00000001FF
