:04000000B7EF00F066
:100008005382FACF2FF0FBCF30F0E9CF31F0EACFAF
:1000180032F0E1CF33F0E2CF34F0D9CF35F0DACF98
:1000280036F0F3CF37F0F4CF38F0F6CF39F0F7CF1A
:100038003AF0F8CF3BF0F5CF3CF0F2A074D0F2964E
:1000480063D081B8CD8081B86ED0CD90480E106E47
:100058006B0E116E420E126ECF502C6E2B6ACE5064
:100068002D6E2E6A2B502D10096E2C502E100A6EF4
:1000780079EC04F009C00DF00AC00EF00BC00FF0C7
:100088002CEC03F00DC01CF00EC01DF00FC01EF0CC
:10009800B2EC02F01CC083F01DC084F0000E526E5A
:1000A800010E30D081BACD8081BA3DD0CD90480EB6
:1000B800106E6B0E116E420E126ECF502C6E2B6AA4
:1000C800CE502D6E2E6A2B502D10096E2C502E10EE
:1000D8000A6E79EC04F009C00DF00AC00EF00BC0EE
:1000E8000FF02CEC03F00DC01CF00EC01DF00FC07B
:1000F8001EF0B2EC02F01CC081F01DC082F0000EB0
:10010800526E000E516E0FD051C02BF052C02CF021
:100118002C50000AD8A407D02B50000AD8B491D785
:10012800010AD8B4BFD7F290F2863CC0F5FF3BC0B5
:10013800F8FF3AC0F7FF39C0F6FF38C0F4FF37C000
:10014800F3FF36C0DAFF35C0D9FF34C0E2FF33C051
:10015800E1FF32C0EAFF31C0E9FF30C0FBFF2FC02A
:10016800FAFF5392110095EF04F0F6EC03F0800EBD
:1001780000016E6F250E6F6F000E706F000E716FAD
:1001880077EC01F05CEC04F01A0E00017C6FF80EBD
:10019800E82EFED77C2FFCD700F0000ECF6E000EA5
:1001A800CE6E89B004D000017C6B7C2B02D000019C
:1001B8007C6B895000017C19FE0B7C19896E000E3E
:1001C800CF6E000ECE6E51505210D8A40AD0100E29
:1001D8000F015A6F8A80060EE82EFED700D08A904B
:1001E8000DD051045210D8A409D0200E0F015A6F17
:1001F8008A82060EE82EFED700D08A92820E00016F
:100208007C6FDD0EE82EFED77C2FFCD700D00001D6
:10021800845105E1030E0001835DD8A05FD0000181
:10022800825105E1030E0001815DD8A057D000017D
:1002380085510001835D0001865100018459D8A0D1
:100248000AD0000185510001815D0001865100013D
:100258008259D8B013D000017D0500017E11D8A4C1
:1002680004D0610E0001896F30D0000E0001806F4C
:10027800000E7F6F00017D4B7E2B30D0000187512F
:100288000001835D0001885100018459D8A00AD07B
:10029800000187510001815D0001885100018259E8
:1002A800D8B019D0020E00017F1900018011D8A41E
:1002B80009D0410E0001896F000E0001806F000E09
:1002C8007F6F0CD000017F4B802B000E00017E6FEA
:1002D800000E7D6F03D0580E0001896F000189510F
:1002E80036EC04F05ED76EC072F06FC073F070C069
:1002F80074F071C075F0060ED8900001723773372C
:1003080074377537E82EF8D70001721F731F741FF2
:10031800751F722B000E732374237523000E0001C2
:1003280072250001606F120E000173210001616FD8
:100338007A0E000174210001626F000E0001752120
:100348000001636F6EC076F06FC077F070C078F010
:1003580071C079F0060ED890000176377737783774
:100368007937E82EF8D776C064F077C065F078C0A2
:1003780066F079C067F025EC02F060C07AF061C0E1
:100388007BF000017B05D8A04FD06EC072F06FC023
:1003980073F070C074F071C075F0040ED89000014D
:1003A8007237733774377537E82EF8D70001721F24
:1003B800731F741F751F722B000E7323742375230C
:1003C800000E000172250001606F120E00017321FA
:1003D8000001616F7A0E000174210001626F000E46
:1003E800000175210001636F6EC076F06FC077F071
:1003F80070C078F071C079F0040ED890000176379B
:10040800773778377937E82EF8D776C064F077C031
:1004180065F078C066F079C067F025EC02F060C03E
:100428007AF061C07BF0AC8400017B05D8B0120083
:100438007AC0AFFFAC98AB8E948E948CAB88AC8AA4
:100448001200000E0001696F000167AF0CD00001B7
:10045800671F661F651F646D000E6523662367238B
:10046800010E0001696F000163AF0CD00001631F2A
:10047800621F611F606D000E612362236323010EFA
:100488000001691B000E00016A6F000E6B6F000E01
:100498006C6F000E6D6F0001645100016511000161
:1004A800661100016711D8B442D0010E0001686FCF
:1004B80008D00001D8906437653766376737000180
:1004C800682B000167AFF5D70001D8906A376B3702
:1004D8006C376D37000164510001605D00016551A2
:1004E800000161590001665100016259000167511C
:1004F80000016359D8A012D0000164510001605F67
:10050800000165510001615B000166510001625BF9
:10051800000167510001635B00016A810001D89006
:1005280067336633653364330001682FCDD7000124
:1005380069510001D8B409D000016D1F6C1F6B1FF1
:100548006A6D000E6B236C236D236AC060F06BC06C
:1005580061F06CC062F06DC063F012001EC020F044
:10056800216A226A1D34203601E3218020502A6E38
:100578002A50D8A409D0000E1C6E000E1D6E000E65
:100588001E6E000E1F6E1200170E206E1CC021F08A
:100598001DC022F01EC023F02028246E04D0D8905D
:1005A800233222322132242EFAD72150256E1D8E75
:1005B800FF0E1C16FF0E1D16000E1E161C50266E72
:1005C8001D50276E1E50286E296A8E0E2A5E2AAE8E
:1005D80016D02A50800A8F0FD8B009D0000E1C6E92
:1005E800000E1D6E000E1E6E000E1F6E1200D890BB
:1005F80029322832273226322A3EF9D715D0170E4B
:100608002A640FD0000E1C6E000E1D6E000E1E6EAA
:10061800000E1F6E1200D890263627362836293647
:100628002A062A50D8A4F7D72550D8B408D0291EAE
:10063800281E271E266C000E27222822292226C0C3
:100648001CF027C01DF028C01EF029C01FF01200A2
:100658000FC013F0146A156A0E34133601E31480C0
:1006680013501A6E1A50D8A407D0000E0D6E000E43
:100678000E6E000E0F6E120012C013F0146A156A87
:100688001134133601E3148013501B6E1B50D8A489
:1006980007D0000E0D6E000E0E6E000E0F6E1200CB
:1006A800000E176E000E186E000E196E1B50890F83
:1006B8001A5E0FC01BF012501B1A800E1B160E8EEE
:1006C800FF0E0D16FF0E0E16000E0F16118EFF0EE2
:1006D8001016FF0E1116000E1216180E166ED89070
:1006E80017361836193610500D5C11500E58125026
:1006F8000F58D8A007D010500D5E11500E5A125046
:100708000F5A1780D8900D360E360F36162EE7D7AB
:1007180017C001F018C002F019C003F01AC004F0A5
:100728001BC005F09FEC03F001C00DF002C00EF0F5
:1007380003C00FF012000450D8B405D001500210C5
:100748000310D8A40CD0000E016E000E026E000E2D
:10075800036E1200042AD890033202320132000ECE
:100768000114066E000E0214076EFE0E0314086EC6
:10077800065007100810D8B40CD0ECD7042A010E84
:100788000126000E0222000E0322D8900332023204
:100798000132000E0114066E000E0214076EFF0EE1
:1007A8000314086E065007100810D8B406D0E6D710
:1007B8000406D89001360236033602BE03D0020E74
:1007C8000460F6D704A0029ED890043204500312A5
:1007D8000550D8A4038E01C001F002C002F003C086
:1007E80003F01200000E806E000E816E000E826E05
:1007F800000EF06E000EF16E000EF26E000E9E6E90
:10080800000ED06E000E926E000E936E000E946E67
:10081800380E936EF290F286F180300E0F015A6F07
:100828000F015C93100ECD6E000E526E000E516ECD
:10083800000E0001886F640E876F000E0001866F3E
:100848004B0E856F000E0001806F000E7F6F000E4B
:1008580000017E6F000E7D6F580E0001896FF28EC9
:10086800D08E12000001606F010E0F01256F0F017D
:10087800259D0F012297000E0F01216F400E0F01D9
:10088800226F0F0120810F01208360C026FF0F0116
:10089800208703D00F0120B989820F0120B7FAD72A
:1008A8000F0120B989820F0120B912008992120024
:1008B800800E6F6E6E8E6E9C6E9A000E726E010EBA
:1008C8000E01436FBA0E0E01446F070E0E01456FFD
:1008D800708A000E6F6E6E9E6E9C6E9A6E38E8324D
:1008E800070B0009D8B41200F9D7000E0C6E0AAE37
:1008F80006D0096C0A1ED8B00A2A010E0C6E09C06F
:1009080001F00AC002F0036A8E0E046E0CC005F0F6
:100918009FEC03F001C009F002C00AF003C00BF01D
:10092800120000EE7DF0080EEE6AE806FDE100EE2A
:100938003DF0160EEE6AE806FDE153905392000E64
:08094800F86E0001B9EF00F0A8
:020000040020DA
:08000000FFFFFFFFFFFFFFFF00
:020000040030CA
:0E0000001D037F7FFF8991FF0FC00FE00F40AF
:00000001FF
